:100000000C9408040C9430040C9430040C94D31910
:100010000C94D3190C94D3190C9430040C94300420
:100020000C9430040C9430040C9430040C94300480
:100030000C9430040C9430040C9430040C94300470
:100040000C9489190C9430040C94A71D0C94811DF8
:100050000C9430040C9430040C9430040C94300450
:100060000C944D1A0C9430042048617264776172CC
:10007000652043544620627920496E666F5365635C
:10008000740A0A00435942455220534B494C4C5381
:100090000A20204348414C4C454E47450A000A433C
:1000A0006F6E67726174756C6174696F6E73210A2B
:1000B000596F7520617373656D626C656420746837
:1000C00065206261646765210A0A0A00416C6C2040
:1000D0006368616C6C656E676573206172653A0A6E
:1000E0000A5B54585D5B52585D5B585D5B585D5BC5
:1000F000585D5B474E445D0A3936303020384E310A
:100100000A0A436F6E6E6563742054582C2052584F
:100110002C20616E6420474E440A00496E7465725B
:10012000666163653A20554152540A0A496620794E
:100130006F7520636F6E7665727420746865736581
:100140000A636F72726563746C7920656E6F756790
:10015000680A74696D65732C20796F75276C6C2043
:100160006765740A74686520666C61672E0A0049C9
:100170006E746572666163653A20554152540A0A8D
:10018000496620796F7520736F6C76652074686599
:1001900073650A636F72726563746C7920656E6F44
:1001A0007567680A74696D65732C20796F75276CA3
:1001B0006C206765740A74686520666C61672E0A36
:1001C00000496E746572666163653A205541525408
:1001D0000A0A4279746520617420612074696D6532
:1001E0002C0A72657665616C207468652070617395
:1001F00073776F72642E0A00342D50617373776FBA
:10020000726400332D46756C6C2041646465720025
:10021000322D42696E3244656300312D554152548E
:1002200000302D41534D204D650000000000003E80
:100230005B4F5B3E3E6B4F6B3E1C3E7C3E1C183C56
:100240007E3C181C577D571C1C5E7F5E1C00183CB2
:100250001800FFE7C3E7FF0018241800FFE7DBE7FB
:10026000FF30483A060E2629792926407F050507E2
:10027000407F05253F5A3CE73C5A7F3E1C1C08083E
:100280001C1C3E7F14227F22145F5F005F5F060903
:100290007F017F006689956A606060606094A2FF5C
:1002A000A29408047E040810207E201008082A1C4E
:1002B00008081C2A08081E101010100C1E0C1E0C1A
:1002C00030383E3830060E3E0E06000000000000BA
:1002D000005F00000007000700147F147F14242A29
:1002E0007F2A1223130864623649562050000807FB
:1002F0000300001C2241000041221C002A1C7F1C1C
:100300002A08083E0808008070300008080808081D
:10031000000060600020100804023E5149453E0084
:10032000427F400072494949462141494D331814E2
:10033000127F1027454545393C4A49493141211131
:1003400009073649494936464949291E0000140023
:100350000000403400000008142241141414141446
:10036000004122140802015909063E415D594E7CA4
:100370001211127C7F494949363E414141227F4159
:1003800041413E7F494949417F090909013E4141B7
:1003900051737F0808087F00417F41002040413FA2
:1003A000017F081422417F404040407F021C027FB1
:1003B0007F0408107F3E4141413E7F090909063E06
:1003C0004151215E7F0919294626494949320301D5
:1003D0007F01033F4040403F1F2040201F3F4038E7
:1003E000403F631408146303047804036159494DC2
:1003F00043007F4141410204081020004141417FF8
:10040000040201020440404040400003070800206D
:10041000545478407F28444438384444442838446D
:1004200044287F385454541800087E090218A4A4A4
:100430009C787F0804047800447D40002040403DC3
:10044000007F1028440000417F40007C047804783D
:100450007C080404783844444438FC1824241818D0
:10046000242418FC7C08040408485454542404042C
:100470003F44243C4040207C1C2040201C3C403019
:10048000403C44281028444C9090907C4464544C48
:1004900044000836410000007700000041360800A3
:1004A00002010204023C2623263C1EA1A161123A4D
:1004B0004040207A38545455592155557941225499
:1004C000547842215554784020545579400C1E529E
:1004D0007212395555555939545454593955545443
:1004E000580000457C410002457D420001457C40AA
:1004F0007D1211127DF0282528F07C5455450020EE
:1005000054547C547C0A097F4932494949323A445F
:1005100044443A324A4848303A4141217A3A4240CA
:100520002078009DA0A07D3D4242423D3D4040409C
:100530003D3C24FF2424487E4943662B2FFC2F2B6F
:10054000FF0929F620C0887E090320545479410010
:1005500000447D413048484A32384040227A007A8F
:100560000A0A727D0D19317D2629292F282629296D
:10057000292630484D40203808080808080808088F
:10058000382F10C8ACBA2F102834FA00007B0000B6
:1005900008142A142222142A14085500550055AABA
:1005A00055AA55AAFF55FF55FF000000FF00101087
:1005B00010FF00141414FF001010FF00FF1010F0C3
:1005C00010F0141414FC001414F700FF0000FF00D6
:1005D000FF1414F404FC141417101F10101F101F24
:1005E0001414141F00101010F0000000001F101051
:1005F00010101F10101010F010000000FF1010104D
:10060000101010101010FF10000000FF140000FF69
:1006100000FF00001F10170000FC04F41414171052
:10062000171414F404F40000FF00F7141414141445
:100630001414F700F7141414171410101F101F14BB
:100640001414F4141010F010F000001F101F00001C
:10065000001F14000000FC140000F010F01010FF48
:1006600010FF141414FF141010101F00000000F0ED
:1006700010FFFFFFFFFFF0F0F0F0F0FFFFFF0000C2
:10068000000000FFFF0F0F0F0F0F3844443844FCE9
:100690004A4A4A347E02020606027E027E02635500
:1006A0004941633844443C04407E201E2006027EBB
:1006B000020299A5E7A5991C2A492A1C4C720172CD
:1006C0004C304A4D4D303048784830BC625A463D37
:1006D0003E494949007E0101017E2A2A2A2A2A44EC
:1006E000445F444440514A444040444A5140000021
:1006F000FF0103E080FF000008086B6B083612362C
:100700002436060F090F060000181800000010100C
:10071000003040FF0101001F01011E00191D1712CA
:10072000003C3C3C3C0000000000000000002300B6
:100730002600290043686F6F736520796F757220FA
:100740006C6576656C2E2E0A0A00010204081020E2
:10075000408001020408102001020408102000005B
:100760000000250028002B000404040404040404F1
:10077000020202020202030303030303000000005B
:10078000240027002A0000000008000201000003E6
:100790000407000000000000000004E010021C0735
:1007A000123732292D29252B3900010310E11003BE
:1007B0001D07062E2C292D2E2E373F000002101368
:1007C000800A298064022A040000007F2B040000B4
:1007D000009F0F0180961180FFB103012C2DB20301
:1007E000012C2DB306012C2D012C2DB40107C003C3
:1007F000A20284C101C5C2020A00C3028A2AC4023D
:100800008AEEC5010E20003601C83A010500A71E78
:1008100011241FBECFEFD8E0DEBFCDBF15E0A0E0B2
:10082000B1E0E6E0F2E502C005900D92A237B10713
:10083000D9F727E0A2E7B5E001C01D92A63BB207B9
:10084000E1F714E0C8E0D4E004C02197FE010E9463
:100850007024C730D107C9F70E94861F0C94012964
:100860000C9400000895FC016370668B848195816F
:1008700026813781613039F0633029F09187808794
:100880003387228708953187208793878287089549
:100890006F927F928F929F92AF92BF92CF92DF9290
:1008A000EF92FF920F931F93CF93DF93EC014B01D5
:1008B0005A0169013801E881F9810284F385E02D4C
:1008C0000995E881F9810288F389E02D8701960175
:1008D000A501B401CE010995A501460D571D415052
:1008E0005109E881F9810288F389E02D9601B4016C
:1008F000CE010995E881F9810088F189E02D930105
:10090000A501B401CE010995C80CD91CB6016150EE
:100910007109E881F9810088F189E02D9301A50131
:10092000CE010995E881F9810688F789E02DCE018D
:10093000DF91CF911F910F91FF90EF90DF90CF90BB
:10094000BF90AF909F908F907F906F9009948F92FF
:100950009F92AF92BF92CF92DF92EF92FF920F934E
:100960001F93CF93DF934C016B015A01E901DC0126
:10097000ED91FC916217730781F40417150724F4B5
:100980008B2D5801042F182F0A191B0998012F5F6E
:100990003F4F048CF58DE02D12C04017510709F52B
:1009A0002617370724F48D2D6901C62FD82F9E01F5
:1009B0002C193D092F5F3F4F068CF78DE02D8701E5
:1009C000A501B601C4010995DF91CF911F910F9147
:1009D000FF90EF90DF90CF90BF90AF909F908F905F
:1009E00008950284F385E02D0995D401ED91FC91E1
:1009F0000488F589E02D9E01A501B601C401099581
:100A0000D401ED91FC910688F789E02DC401DF91B6
:100A1000CF911F910F91FF90EF90DF90CF90BF90FB
:100A2000AF909F908F900994EF92FF920F931F9336
:100A3000DC011A960D911C911B9718962D913C91F3
:100A40001997ED91FC9100A0F1A1E02D7B0140E010
:100A500050E060E070E009951F910F91FF90EF90DA
:100A600008954F925F926F927F928F929F92AF9272
:100A7000BF92CF92DF92EF92FF920F931F93CF938B
:100A8000DF936C012B015A0139014801DC01ED9122
:100A9000FC910284F385E02D0995E201640C751C3C
:100AA000D601ED91FC91C615D7055CF40088F1895B
:100AB000E02D87019401A501BE01C601099521968B
:100AC000EFCF0688F789E02DC601DF91CF911F9106
:100AD0000F91FF90EF90DF90CF90BF90AF909F90DD
:100AE0008F907F906F905F904F9009948F929F921C
:100AF000AF92BF92CF92DF92EF92FF920F931F932C
:100B0000CF93DF93EC015B014A016901E881F98130
:100B10000284F385E02D099595012C0D3D1D215092
:100B20003109E881F9810488F589E02D7801840193
:100B3000A401B501CE010995E881F9810688F789FC
:100B4000E02DCE01DF91CF911F910F91FF90EF909B
:100B5000DF90CF90BF90AF909F908F9009948F922D
:100B60009F92AF92BF92CF92DF92EF92FF920F933C
:100B70001F93CF93DF93EC015B014A016901780178
:100B8000E881F9810284F385E02D0995C80CD91C10
:100B9000860101501109E881F9810488F589E02D69
:100BA0009501A401B501CE010995E881F981068876
:100BB000F789E02DCE01DF91CF911F910F91FF902A
:100BC000EF90DF90CF90BF90AF909F908F9009945F
:100BD000EF92FF920F931F93DC01ED91FC9100A027
:100BE000F1A1E02D09951F910F91FF90EF900895CD
:100BF0000F931F93DC01ED91FC91068CF78DE02D96
:100C000009951F910F9108950F931F93DC01ED91AA
:100C1000FC91048CF58DE02D09951F910F9108959D
:100C2000DC01ED91FC910084F185E02D09942F9277
:100C30003F924F925F926F927F928F929F92AF926C
:100C4000BF92CF92DF92EF92FF920F931F93CF93B9
:100C5000DF9300D000D000D0CDB7DEB72C017E836B
:100C60006D836A015901C801FC82EB824801841A34
:100C7000950A97FE03C091948194910835012D81C6
:100C80003E81621A730A77FE03C071946194710801
:100C9000681479045CF43A2D2B2D5C01832F922F7C
:100CA0003D812E81DE82CD82C32ED22EAD81BE81CA
:100CB000AA16BB065CF43C2D2D2D6C01832F922FC0
:100CC0003D812E81BE82AD82A32EB22E85012D8163
:100CD0003E81021B130B1C012C183D0837FE03C07C
:100CE000319421943108780117FF03C03FEFE31AD4
:100CF000F30AF594E794C816D9062CF08FEF9FEF0E
:100D00009A83898304C0A1E0B0E0BA83A9832D81CE
:100D10003E81A216B30624F1D201ED91FC91048428
:100D2000F585E02D2B813C816814790424F44D81F4
:100D30005E81B60103C0A6016D817E81C201099565
:100D4000E218F308F7FE06C029813A81C20ED31ECD
:100D5000E00EF11E8D819E8101969E838D83D7CFFB
:100D600026960FB6F894DEBF0FBECDBFDF91CF91B0
:100D70001F910F91FF90EF90DF90CF90BF90AF90B9
:100D80009F908F907F906F905F904F903F902F90AB
:100D90000895089580E090E008958F929F92AF9219
:100DA000BF92CF92DF92EF92FF920F931F93CF9358
:100DB000DF935C014B016A01E90177FD53C0DC015F
:100DC00018968D919C911997681779070CF04AC075
:100DD000209709F447C037FF07C0C9010196C80E24
:100DE000D91ED195C195D109F50182859385C81683
:100DF000D906C4F5A6014C0F5D1F9A012150310997
:100E000037FD30C0D7FE03C0EA01C12CD12C281712
:100E100039071CF0EC01CC19DD09D501ED91FC91ED
:100E20000284F385E02DC501099578018E0121E04A
:100E300030E0A601B401C5010E940815D501ED916D
:100E4000FC910688F789E02DC501DF91CF911F91B4
:100E50000F91FF90EF90DF90CF90BF90AF909F9059
:100E60008F900994DF91CF911F910F91FF90EF9098
:100E7000DF90CF90BF90AF909F908F9008958F920A
:100E80009F92AF92BF92CF92DF92EF92FF920F9319
:100E90001F93CF93DF935C016B014A01E90157FD7A
:100EA00053C0DC011A968D919C911B9748175907E6
:100EB0000CF04AC0209709F447C037FF07C0C901AA
:100EC0000196C80ED91ED195C195D109F50180852D
:100ED0009185C816D906C4F5A6014C0F5D1F9A016D
:100EE0002150310937FD30C0D7FE03C0EA01C12CC3
:100EF000D12C281739071CF0EC01CC19DD09D501DC
:100F0000ED91FC910284F385E02DC50109957801EE
:100F100001E010E09E01A401B601C5010E94081580
:100F2000D501ED91FC910688F789E02DC501DF918F
:100F3000CF911F910F91FF90EF90DF90CF90BF90D6
:100F4000AF909F908F900994DF91CF911F910F9157
:100F5000FF90EF90DF90CF90BF90AF909F908F90D9
:100F600008958F929F92AF92BF92CF92DF92EF92AD
:100F7000FF920F931F93CF93DF934C016B015A01A4
:100F8000E901209709F46CC00115110509F468C046
:100F900037FF07C0C9010196C80ED91ED195C1956A
:100FA000D109F401A085B185CA16DB060CF058C042
:100FB00017FF07C0C8010196A80EB91E119501952B
:100FC0001109F40182859385A816B9060CF048C072
:100FD000F601EC0FFD1FAF014150510957FD40C014
:100FE000B501600F711F9B012150310937FD38C0D9
:100FF000D7FE03C0EF01C12CD12CB7FE03C08B017B
:10100000A12CB12C4A175B071CF0ED01CC19DD09AE
:10101000281739071CF08C010A191B09D401ED911E
:10102000FC910284F385E02DC40109959E01A50180
:10103000B601C4010E940815D401ED91FC91068807
:10104000F789E02DC401DF91CF911F910F91FF909F
:10105000EF90DF90CF90BF90AF909F908F900994CA
:10106000DF91CF911F910F91FF90EF90DF90CF9084
:10107000BF90AF909F908F900895EF92FF920F9343
:101080001F93CF93DF9377FD34C0DC011896ED9169
:10109000FC9119976E177F0764F52115310549F109
:1010A00037FF07C0F90131964E0F5F1F319521952B
:1010B0003109DC011A96ED91FC911B974E175F07E1
:1010C000C4F4EA01C20FD31FDE011197B7FD11C0AE
:1010D00057FF03C09E0140E050E0AE17BF071CF071
:1010E0009F01241B350B7801890121E030E00E942B
:1010F0000815DF91CF911F910F91FF90EF90089508
:10110000EF92FF920F931F93CF93DF9357FD33C05E
:10111000DC011A96ED91FC911B974E175F075CF569
:101120002115310541F137FF07C0F90131966E0FE6
:101130007F1F319521953109DC011896ED91FC91C5
:1011400019976E177F07BCF4EB01C20FD31FDE01A6
:101150001197B7FD10C077FF03C09E0160E070E0FB
:10116000AE17BF071CF09F01261B370B780101E06B
:1011700010E00E940815DF91CF911F910F91FF9011
:10118000EF9008958F929F92AF92BF92CF92DF928D
:10119000EF92FF920F931F93CF93DF934701211597
:1011A000310509F44DC00115110509F449C037FF97
:1011B00007C0F90131966E0F7F1F319521953109D6
:1011C000DC011896AD90BC9019976A157B05C4F5A3
:1011D00017FF07C0F80131964E0F5F1F119501955B
:1011E0001109DC011A96ED91FC911B974E175F07D0
:1011F0003CF56B01C20ED31EE6012197D7FD20C03E
:101200007A01E00EF11ED7011197B7FD19C077FFE3
:1012100003C0960160E070E057FF03C0870140E023
:1012200050E0CA15DB051CF09501261B370BAE17E5
:10123000BF071CF08F01041B150B74010E940815D9
:10124000DF91CF911F910F91FF90EF90DF90CF90A2
:10125000BF90AF909F908F900895AF92BF92CF9222
:10126000DF92EF92FF920F931F93CF93DF93EC01E6
:1012700077FD38C088859985681779079CF557FDF3
:1012800031C08A859B854817590764F569017A0141
:101290005B01E881F9810284F385E02DCE01099597
:1012A000E881F98102A4F3A5E02D01E010E021E03E
:1012B00030E0A701B501CE010995B601CE010E942B
:1012C000B11BE881F9810688F789E02DCE01DF9115
:1012D000CF911F910F91FF90EF90DF90CF90BF9033
:1012E000AF900994DF91CF911F910F91FF90EF90F4
:1012F000DF90CF90BF90AF900895EF92FF920F9341
:101300001F93CF93DF93EC0177FD22C088859985E9
:1013100068177907ECF457FD1BC08A859B85481731
:101320005907B4F47901E881F98102A4F3A5E02D0D
:1013300001E010E021E030E0CE010995B701CE01D7
:10134000DF91CF911F910F91FF90EF900C94B11B03
:10135000DF91CF911F910F91FF90EF900895CF9360
:10136000DF93EC010E94B01C8FA987FD06C0EB8DB6
:10137000FC8D90818AA989238083DF91CF91089584
:101380008F929F92AF92CF92EF92FF920F931F9303
:10139000CF93DF93EC01262F898D9A8D009709F06A
:1013A00042C06A3059F41D861C862D898E859F8522
:1013B00038E0239F800D911D112443C06D3009F446
:1013C000AAC08F898823C9F03C898C859D8546E019
:1013D000349F800D911D1124488559854817590760
:1013E00064F41D861C863D898E859F8548E0349F68
:1013F000800D911D11249F878E87EA88FB880889BC
:1014000019894E855F856C857D85AD88CC88CE0138
:101410000E94D4122C898C859D8536E0239F800DF7
:10142000911D11243EC06A3079F41D861C862D89D9
:10143000FC013896E4918E859F852E9F800D911D2D
:1014400011249F878E8767C06D3009F464C0FC014A
:1014500034963491631708F45EC03296E491E6172F
:1014600008F459C0462F431B342FFC013296859057
:10147000949047E0349F800C911C1124F401329623
:1014800034913196E491332311F0E1110DC0F40150
:101490003496E4912C898C859D85E29F800D911D69
:1014A00011249D878C8737C0F401359644915F895C
:1014B000552319F15C89E32FF0E0E40FF11D47FD9E
:1014C000FA955E9FB0015F9F700D11244C855D857C
:1014D000460F571F688579856417750774F41D8654
:1014E0001C863D89FC013896E4918E859F853E9F40
:1014F000800D911D11249F878E87EA88FB880889BB
:1015000019894E855F856C857D85AD88CC88CE0137
:101510000E94D412BCCF81E090E0DF91CF911F9167
:101520000F91FF90EF90CF90AF909F908F90089584
:101530000F931F93CF93DF938091C6059091C705BA
:10154000DC01ED91FC910084F185E02D09951816E0
:1015500019060CF042C08091C6059091C705DC01C8
:10156000ED91FC910284F385E02D0995D82FC0916F
:10157000C5058A3011F08D3051F4EC2FF0E0EB58B6
:10158000FA4F10821092C50585E795E028C0CF3448
:1015900098F6082F880F110BC8010E949F25892BF0
:1015A00091F4C801C0970A9770F0C8010E94A7255E
:1015B000892B49F4DA3339F0DB3729F0DD3719F0BC
:1015C000DF3509F0B9CFEC2FF0E0EB58FA4FD083BC
:1015D000E1E0EC0FE093C505AFCF80E090E0DF9154
:1015E000CF911F910F9108950895FC0187A987FD60
:1015F00006C0A38DB48D9C9181A9892B8C930895ED
:101600008091AB079091AC0701969093AC078093C3
:10161000AB07880F991F880F991FFC01E755FC4FF6
:1016200080819181892B21F41092AC071092AB0735
:101630008091AB079091AC070C943A1060E087E082
:101640000E94311E60E088E00E94311E60E089E067
:101650000C94311ECF93DF9360E070E08BE996E04D
:101660000E9414051092A8061092A7061092AA06CE
:101670001092A9068FEF9FEF9093AE068093AD0670
:101680009093AC068093AB0682E08093AF06809384
:10169000B006C4E8D0E0FE0184910E943510219686
:1016A000F0E0CD39DF07B9F780EE97E09093AE0612
:1016B0008093AD069093AC068093AB0681E0809357
:1016C000AF068093B006C8E6D0E0FE0184910E9488
:1016D00035102196F0E0C338DF07B9F7DF91CF91DD
:1016E000089599278038910578F0880F991F880F01
:1016F000991FFC01E65FF04080819181A281B38156
:10170000BC01CD0190580895880F991F880F991F2B
:10171000FC01E65FFE4F60817181828193810895B3
:101720006115710579F0FB0101900020E9F731970F
:10173000AF01461B570BDC01ED91FC910280F38158
:10174000E02D099480E090E00895EF92FF920F93CE
:101750001F93CF93DF93CDB7DEB7C054D1090FB637
:10176000F894DEBF0FBECDBF7C018B010E944D22DD
:101770002091740530E08217930709F047C08091EB
:10178000720590917305019690937305809372058D
:1017900023E02F9328EE2F939F938F9383EA94E077
:1017A0009F938F93CE0101967C019F938F930E940C
:1017B0001426B7018091C6059091C7050E94900B31
:1017C0000FB6F894DEBF0FBECDBF209172053091E9
:1017D00073058091C6059091C705283E334071F48A
:1017E000B8010E94900B67E475E08091C605909166
:1017F000C7050E94900B80E090E030C0DC01ED91C5
:10180000FC910680F781E02D099526C068EB74E015
:101810008091C6059091C7050E94900BB7018091F9
:10182000C6059091C7050E94900B61EC74E0809111
:10183000C6059091C7050E94900B8091C6059091B6
:10184000C705DC01ED91FC910680F781E02D09953B
:1018500010927305109272058FEF9FEFC05CDF4FFF
:101860000FB6F894DEBF0FBECDBFDF91CF911F91B1
:101870000F91FF90EF900895CF92DF92EF92FF9239
:101880000F931F93CF93DF93CDB7DEB76E970FB64D
:10189000F894DEBF0FBECDBF0E943D222AE0C22ECB
:1018A000D12CB6010E943924F82E182F0E943D2217
:1018B000B6010E943924E82E082F0E943D2262E0E2
:1018C00070E00E943924D82E811104C0FE1414F453
:1018D0001E2D0F2D202F002E000C330BD11002C017
:1018E0009DE201C09BE23F932F931F929F93812F14
:1018F000012E000C990B9F931F9327ED34E03F932B
:101900002F931F928EE18F93CE0101967C019F93BE
:101910008F930E94E42565EE74E08091C605909156
:10192000C7050E94900BB7018091C6059091C7052D
:101930000E94900B6EEE74E08091C6059091C705F1
:101940000E94900B8091C6059091C705DC01ED9136
:10195000FC910680F781E02D09950FB6F894DEBF63
:101960000FBECDBFDD2011F0100F01C0101B109372
:1019700074056E960FB6F894DEBF0FBECDBFDF9133
:10198000CF911F910F91FF90EF90DF90CF9008952E
:10199000CF92DF92EF92FF920F931F93CF93DF933B
:1019A000CDB7DEB7C255D1090FB6F894DEBF0FBE72
:1019B000CDBF0E943D2260E071E00E9439248C017D
:1019C0008093740562EF74E0CE0101960E94CF25EA
:1019D00098E0E92EF12C20E8C22ED12C1127C80165
:1019E0008C219D21892B11F480E301C081E3639652
:1019F0001FAE1EAE639762968FAF6297BE016F5A9D
:101A00007F4FCE0101960E94B025D594C79481E006
:101A1000E81AF10821F7BE016F5F7F4F8091C6057C
:101A20009091C7050E94900B69E475E08091C6050E
:101A30009091C7050E94900B8091C6059091C705B3
:101A4000DC01ED91FC910680F781E02D0995CE5ADD
:101A5000DF4F0FB6F894DEBF0FBECDBFDF91CF9141
:101A60001F910F91FF90EF90DF90CF9008956CEF52
:101A700074E08091C6059091C7050E94900B69E4BF
:101A800075E08091C6059091C7050E94900B8091EA
:101A9000C6059091C705DC01ED91FC910680F781A8
:101AA000E02D0994CF92DF92EF92FF920F931F9354
:101AB000CF93DF930E942A0B8FEF9FEF9093AE0698
:101AC0008093AD069093AC068093AB0681E0809343
:101AD000AF068093B006C1ECD1E007EF11E0FE0144
:101AE00084910E94351021960C171D07C1F70E94A2
:101AF0001E0B8FE190E00E947624EC0148E069E043
:101B00000E946F12D093C705C093C60540E855E206
:101B100060E070E0CE010E94BD1167E475E0CE0187
:101B20000E94900B0E94370D84E00E94D91D892BE2
:101B300009F44EC00E94980AEC01892BA9F385E7AD
:101B400093E00E94F00F6C01CE010E944D227C01B7
:101B50006AE370E0CE010E94BB250091C60510919A
:101B6000C705009721F1EC012196A7015527BE0179
:101B7000C6010E94D625892BD1F4BE01C6010E9460
:101B8000C625892B89F464E175E0C8010E94900B99
:101B90008091C6059091C705DC01ED91FC9106800E
:101BA000F781E02D0995C0CF68E375E002C062E4DB
:101BB00075E0C8010E94900B8091C6059091C70501
:101BC000DC01ED91FC910680F781E02D0995AACF0B
:101BD000DF91CF911F910F91FF90EF90DF90CF9009
:101BE0000C941E0BCF93DF930E942A0B8FEF9FEF75
:101BF0009093AE068093AD069093AC068093AB06AF
:101C000081E08093AF068093B006CFE6D1E0FE017D
:101C100084910E9435102196F1E0C03CDF07B9F7AE
:101C20000E941E0B8FE190E00E947624EC0148E0B8
:101C300069E00E946F12D093C705C093C60540E8C3
:101C400055E260E070E0CE010E94BD1167E475E0EE
:101C5000CE010E94900B10927305109272050E94A3
:101C60003C0C84E00E94D91D892BB9F0809172054B
:101C700090917305883E9340A1F30E94980AEC016D
:101C8000892B79F387E593E00E94F00FBC01CE0128
:101C90000E94A50B97FFE5CFE2CFDF91CF910C9487
:101CA0001E0BCF93DF930E942A0B8FEF9FEF909331
:101CB000AE068093AD069093AC068093AB0681E0B0
:101CC0008093AF068093B006CBE1D1E0FE01849112
:101CD0000E9435102196F1E0CE36DF07B9F70E9459
:101CE0001E0B8FE190E00E947624EC0148E069E051
:101CF0000E946F12D093C705C093C60540E855E215
:101D000060E070E0CE010E94BD1167E475E0CE0195
:101D10000E94900B10927305109272050E94C80CDD
:101D200084E00E94D91D892BB9F0809172059091B1
:101D30007305883E9340A1F30E94980AEC01892B19
:101D400079F389E393E00E94F00FBC01CE010E9479
:101D5000A50B97FFE5CFE2CFDF91CF910C941E0B3F
:101D60000F931F93CF93DF930E942A0B8FEF9FEF68
:101D70009093AE068093AD069093AC068093AB062D
:101D800081E08093AF068093B006CCECD0E0FE01FA
:101D900084910E9435102196F1E0CA31DF07B9F72E
:101DA0000E941E0B8FE190E00E947624EC0148E037
:101DB00069E00E946F12D093C705C093C60540E842
:101DC00055E260E070E0CE010E94BD1185E293E033
:101DD0000E94F00FC0E0D0E0209759F46CE475E069
:101DE0008091C6059091C7050E94900B04E610E013
:101DF0000EC085E293E00E94F00FBC018091C60501
:101E00009091C7050E94900B69E475E0E9CF84E0EA
:101E10000E94D91D892B99F161E070E080E090E08B
:101E20000E946D1E0150110991F769E475E08091DF
:101E3000C6059091C7050E94900B8091C6059091B0
:101E4000C705DC01ED91FC910084F185E02D099539
:101E5000181619060CF0C0CF8091C6059091C705E1
:101E6000DC01ED91FC910284F385E02D09958A3027
:101E700019F4C1E0D0E0E1CF8D30F9F6FACFDF916F
:101E8000CF911F910F910C941E0BCF93DF930E9463
:101E90002A0B8FEF9FEF9093AE068093AD06909341
:101EA000AC068093AB0681E08093AF068093B006CA
:101EB000CEE9D0E0FE0184910E9435102196F0E039
:101EC000CB3CDF07B9F78AE093E00E94F00FBC013A
:101ED0008BE996E00E94900B69E475E08BE996E04F
:101EE0000E94900B84E00E94D91D892B39F065E097
:101EF00070E080E090E00E946D1EF4CFDF91CF9102
:101F00000895EF92FF920F931F93CF93DF93EC010D
:101F100081E0888F9B8D8C8D981305C0E889F989A5
:101F2000808185FD26C0F62E0B8D10E00F5F1F4FC0
:101F30000F731127E02E8C8DE8120CC00FB607FC32
:101F4000FACFE889F989808185FFF5CFCE010E941B
:101F50005F1DF1CF8B8DFE01E80FF11DE35AFF4F9E
:101F6000F0829FB7F8940B8FEA89FB8980818062A9
:101F70000AC09FB7F894EE89FF896083E889F989E0
:101F800080818370806480839FBF81E090E0DF91D7
:101F9000CF911F910F91FF90EF900895CF93DF9312
:101FA000EC01888D8823C9F0EA89FB89808185FD51
:101FB00005C0A889B9898C9186FD0FC00FB607FCB2
:101FC000F5CF808185FFF2CFA889B9898C9185FFF3
:101FD000EDCFCE010E945F1DE7CFDF91CF91089535
:101FE000CF93DF93CDB7DEB729970FB6F894DEBF56
:101FF0000FBECDBF29E0E9E6F5E0DE0111960190C4
:102000000D922A95E1F7BC01ACECB5E020E030E0A0
:10201000AD014C5C5540FB019191BF019923B1F09A
:102020009750E1E0F0E0EC0FFD1FE20FF31F40815D
:1020300094279D932F5F3F4FE1E0F0E0EC0FFD1FF1
:10204000E20FF31F80818111E3CFE0CFFA01E45367
:10205000FA4F10828CEC95E029960FB6F894DEBF0B
:102060000FBECDBFDF91CF910895682F8BE996E029
:102070000C94C0093F924F925F926F927F928F9221
:102080009F92AF92BF92CF92DF92EF92FF920F9307
:102090001F93CF93DF933C010E942A0B8FEF9FEF9A
:1020A0009093AE068093AD069093AC068093AB06FA
:1020B00081E08093AF068093B006C4E3D7E009E4E3
:1020C00017E0FE0184910E94351021960C171D0720
:1020D000C1F709EA13E0E12CF12CCC24CA94DC2CE2
:1020E0004424439490EEA92EBB24BA9422E0322ECD
:1020F000F80182819381892B09F443C0E614F70427
:1021000071F4B092AE06A092AD06B092AC06A09269
:10211000AB063092AF063092B006512C0DC0D09273
:10212000AE06C092AD06D092AC06C092AB0640920D
:10213000AF064092B006F1CFC52DD0E0F801808007
:102140009180C4010E946B22C817D90740F4F401A2
:10215000EC0FFD1F84910E9435105394EDCF6BE47A
:1021600075E08BE996E00E94900B69E475E08BE9DD
:1021700096E00E94900BFFEFEF1AFF0A0C5F1F4FD3
:10218000B7CFDF91CF911F910F91FF90EF90DF902C
:10219000CF90BF90AF909F908F907F906F905F9007
:1021A0004F903F9008950F931F93CF93DF93EC01CF
:1021B0008B010E94B01C8FA987FD06C0EB8DFC8DA2
:1021C00090818AA989238083ED8DFE8D90818CA9D1
:1021D0008923808366E3CE010E94F31BED8DFE8D83
:1021E00090818BA9892B80838DA9F801823029F0F9
:1021F0006081CE010E94F31B08C088A98823C1F327
:1022000060817181CE010E94B11B8FA987FD06C03C
:10221000EB8DFC8D908189A9892B80838DA98111FB
:1022200006C0DF91CF911F910F910C94F40ADF91BA
:10223000CF911F910F910895AF92BF92CF92DF92ED
:10224000EF92FF920F931F93CF93DF93BC016F5FC9
:102250007F4FFC011491112309F484C0FB01D49138
:102260007B01F2E0EF0EF11CFB0131966491062F29
:102270000078C62FCF778BE996E00E94B01C809142
:10228000D20687FD09C0E091B606F091B7069081AD
:102290008091CD0689238083E091B806F091B9063C
:1022A00090818091CF06892380836D2F8BE996E002
:1022B0000E94F31BE091B806F091B90690818091DD
:1022C000CE06892B8083F701C12CD12CD0E0CC160F
:1022D000DD06F4F48091D0065F01823061F48091D4
:1022E000CB06882341F0619171915F018BE996E003
:1022F0000E94B11B08C08FEFA81AB80A64918BE93D
:1023000096E00E94F31BEFEFCE1ADE0AF501DFCF55
:102310008091D20687FD09C0E091B606F091B7061C
:1023200090818091CC06892B80838091D006811189
:1023300002C00E94F40AB7016C0F7D1F011102C098
:10234000115089CFEB012196FB01649170E06F3F42
:10235000710511F464EF71E080E090E00E946D1E61
:10236000BE01EECFDF91CF911F910F91FF90EF90C3
:10237000DF90CF90BF90AF900895CF93DF93EC01A3
:102380009A01AB011B8E1A8E198E188E1F8A1E8A17
:1023900060E079E08DE390E00E947C22F901243036
:1023A000310518F0C901039702C081E090E09D8FCC
:1023B0008C8F6C85663108F06AC0C9019695879547
:1023C0008431910510F0439702C081E090E09F8B2B
:1023D0008E8B369718F0C901059702C081E090E016
:1023E000998F888FC901880F991F280F391F36953B
:1023F0002795369527952D30310518F02C50310949
:1024000002C021E030E03B8F2A8F309168006830B5
:1024100058F021E06E3008F420E091E0892F01C0EF
:10242000880F2A95EAF701C084E0832B8093680027
:102430009C85983038F09E3040F0963148F020E08E
:1024400030E008C02DE630E005C02BE630E002C0E9
:102450002CE630E03C8B2B8B983030F481E001C0CF
:10246000880F9A95EAF70EC0292F30E09E3018F4B5
:102470002850310902C02E50310981E001C0880F77
:102480002A95EAF78D8B8C8D9D8D0197F1F78A8DBA
:102490009B8D892B09F1E091CA05F091CB05CE17F0
:1024A000DF07D1F0309739F0A389B4899C918589F1
:1024B000809589238C938E8D8E7F8E8F1092C90587
:1024C0001092C805D093CB05C093CA05EB89FC894F
:1024D00090818D89892B8083DF91CF9108950F930F
:1024E0001F93CF93DF93EC01162F042F1B821A82C8
:1024F00088EE93E0A0E0B0E08C839D83AE83BF8341
:102500008BE993E0998388831F8A1E8A198E188E1F
:102510001B8E1A8E1D8E1C8E6E8D6E7F6D7F6E8F44
:102520006695617081E06827842F0E94021E61E039
:10253000802F0E94311E802F90E0FC01E65BF84F57
:10254000E491E88BFC01E859F84FE491F0E0EE0FDC
:10255000FF1FE25AF84F859194919A8B898B60E026
:10256000812F0E94311E8E8D81FD04C061E0812F7C
:102570000E94021E1C87812F90E0FC01E65BF84F51
:10258000E491ED87FC01E859F84FE491F0E0EE0F9B
:10259000FF1FE65DF84F859194919F878E87DF91AD
:1025A000CF911F910F9108952F923F924F925F927A
:1025B0006F927F928F929F92AF92BF92CF92DF9253
:1025C000EF92FF920F931F93CF93DF93CDB7DEB7B8
:1025D0006B970FB6F894DEBF0FBECDBF9B8F8A8F6F
:1025E0001B014A01D22E198708873701A982DC0115
:1025F00059962D913C915A972115310509F0FFC04C
:1026000018968D919C911997681779070CF0E7C17E
:102610001A968D919C911B97481759070CF0DFC1B2
:10262000EC2DF0E0FB83EA839B0146E0C49E200D85
:10263000311D11243D872C87121613060CF0CFC1D3
:102640006A2D70E07B876A8783E0660F771F8A9523
:10265000E1F77F876E87CB01880D991D1816190643
:102660000CF0BDC158968C91811104C08FEA8D1574
:1026700008F4D394AA8DBB8DED91FC91119702843F
:10268000F385E02DCD010995B5E0DB9EC001112455
:10269000EC2DF0E0F98BE88B91012B5F3F4F3B8BEA
:1026A0002A8B3D822C822101AC01421953095D8B9A
:1026B0004C8B7981672F70E07F8B6E8BC4010896FD
:1026C000998F888FEC89FD89E40DF51DE65DFD4F3E
:1026D000D49054019F828E82D0FE16C0AA8DBB8DED
:1026E000ED91FC91B1E0CB1209C02981213031F488
:1026F0000484F585E02D2885398519C00684F78581
:10270000E02DE884F9841DC0488559854615570594
:1027100019F1AA8DBB8DED91FC91B1E0CB120DC0EA
:102720002981213051F40484F585E02D9301A50120
:10273000B2018A8D9B8D09950FC00684F785E02D27
:1027400073010A851B852A813B814E815F816C81E3
:102750007D818A8D9B8D0995D6943FEFA31AB30A8C
:102760004E815F816E897F89460F571F5F834E833D
:10277000888D998DA816B90609F0AECF9FEF491A3A
:10278000590AAC81BD81E889F989AE0FBF1FBD83AD
:10279000AC832A893B894216530609F093CF4885BA
:1027A00059854615570509F4F8C0AA8DBB8DED91E2
:1027B000FC91B1E0CB1211C02981213071F4B1013B
:1027C0006B5F7F4F0088F189E02D830128E030E0C6
:1027D000A4018A8D9B8D0995E0C06C857D854A8119
:1027E0005B81641B750B0684F785E02D73010E85F4
:1027F0001F859A01A4018A8D9B8D0995CEC0F90190
:102800003496E491DE1AF901329685919491B7E0FD
:10281000DB9E800D911D1124F901259134913B8B94
:102820002A8BFC01259134915901FC013296549078
:10283000319634913C87329674903196149141E0F0
:102840004C1518F05981523068F0672D072C000C98
:10285000770B7D836C83812F012E000C990B9B835A
:102860008A8304C01B821A821D821C82AA8DBB8DA2
:10287000ED91FC9111970284F385E02DCD0109952E
:10288000412CD12C612CF981EF2FF0E0FF83EE83F6
:102890002C2D30E03B872A87A401410F511D17FDE5
:1028A0005A955F8B4E8BB101670D711D77FC7A9540
:1028B000798F688F7C85671608F06FC0262D30E011
:1028C0004A815B81420F531FAE81BF81A49FC0012B
:1028D000A59F900DB49F900D1124F401E80FF91FEE
:1028E000F98BE88B842D712C4E895F89420F531F21
:1028F0005D8B4C8B751408F04DC051E0580F5E870E
:10290000877041F4C5010196EA89FB89EA0DFB1D38
:10291000D4905C01D7FE3AC061E0C61216C079813E
:10292000713099F4AA8DBB8DED91FC9111970484BF
:10293000F585E02D288539854C895D89688D798DEF
:10294000670D711DCD01099521C08C819D81870D79
:10295000911DEA85FB858E9FB0018F9F700D9E9F14
:10296000700D1124620D731DAA8DBB8DED91FC912C
:1029700011970684F785E02DE884F9840E811F8184
:102980002A853B8548895989CD010995DD0C7394C9
:102990008E85B0CF450C63948DCFAA8DBB8DED9104
:1029A000FC9111970688F789E02DCD016B960FB643
:1029B000F894DEBF0FBECDBFDF91CF911F910F9175
:1029C000FF90EF90DF90CF90BF90AF909F908F904F
:1029D0007F906F905F904F903F902F9009946B96EF
:1029E0000FB6F894DEBF0FBECDBFDF91CF911F9120
:1029F0000F91FF90EF90DF90CF90BF90AF909F909E
:102A00008F907F906F905F904F903F902F900895A0
:102A10008F929F92AF92BF92CF92DF92EF92FF92EE
:102A20000F931F93CF93DF93EC014901BE2CAF2C82
:102A3000E881F98102A4F3A5E02D09959401D8015C
:102A40000E944D24611571058105910509F470C03E
:102A50002DA921110FC0615071098109910908F454
:102A600067C0AEBC0DB407FEFDCFBEBC0DB407FE03
:102A7000FDCFF1CF213079F56B017C010A2D18E0F3
:102A8000CE0107FF03C00E94A61B02C00E949B1B31
:102A9000CE010E94901BCE010E94851B000F115099
:102AA00079F70B2D18E0CE0107FF03C00E94A61B8B
:102AB00002C00E949B1BCE010E94901BCE010E946F
:102AC000851B000F115079F781E0C81AD108E10881
:102AD000F108A1F62DC0FE1017C0EF8DF8A1F0820D
:102AE0006B017C01CC0CDD1CEE1CFF1CC114D1045D
:102AF000E104F104E9F0CE010E94771B21E0C21A43
:102B0000D108E108F108F2CF6B017C01EF8DF8A14B
:102B1000A082CE010E94771BEF8DF8A1B082CE017A
:102B20000E94771B81E0C81AD108E108F10871F70B
:102B3000DF91CF911F910F91FF90EF90DF90CF9099
:102B4000BF90AF909F908F900895CF92DF92EF92B9
:102B5000FF921F93CF93DF93EC016A017B018DA954
:102B600081111CC08F2D9927AA27BB278EBD0DB4BC
:102B700007FEFDCFC701AA27BB278EBD0DB407FEF8
:102B8000FDCFBB27AF2D9E2D8D2D8EBD0DB407FE25
:102B9000FDCFCEBC0DB407FEFDCF42C08130B1F4F5
:102BA00010E2CE01F7FE03C00E94A61B02C00E94E5
:102BB0009B1BCE010E94901BCE010E94851BCC0C5A
:102BC000DD1CEE1CFF1C115061F72AC0EF8DF8A12F
:102BD000872F9927AA27BB278083CE010E94771BC6
:102BE000EF8DF8A1C701AA27BB278083CE010E94E1
:102BF000771BEF8DF8A1BB27AF2D9E2D8D2D8083E8
:102C0000CE010E94771BEF8DF8A1C082CE01DF912B
:102C1000CF911F91FF90EF90DF90CF900C94771B96
:102C2000DF91CF911F91FF90EF90DF90CF900895AB
:102C30002091CA053091CB052817390771F490917E
:102C4000C8058091C905981741F0E091C805F0E0EA
:102C5000EE59F84F808190E008958FEF9FEF08952F
:102C600008951F93CF93DF93DC015C968D919C9127
:102C70005D97009739F421E030E013963C932E9352
:102C800012973BC05196ED91FC91529750962C9122
:102C90005097322F30951FB75E964C915E97742FE8
:102CA000727041FD6095F8944081772311F0422BBA
:102CB00001C043234083EC012197F1F748E05081A4
:102CC00060FF02C0522B01C053235083EC012197B7
:102CD000F1F76695415099F78081772319F08323A6
:102CE000808302C0282B20831FBF5C968D919C910E
:102CF0005D970197F1F781E090E0DF91CF911F910F
:102D000008952091CA053091CB052817390761F441
:102D10008091C9052091C80590E0805C9F4F821B7F
:102D200091098F739927089580E090E0089520918C
:102D3000CA053091CB0528173907B9F49091C80519
:102D40008091C905981789F0E091C805F0E0EE5927
:102D5000F84F80812091C80530E02F5F3F4F2F73DF
:102D600033272093C80590E008958FEF9FEF0895D3
:102D700040911707262F30E0240F311D21323105F5
:102D8000DCF420913B072430C9F4FC0180E090E0A2
:102D9000861758F4309117072191DC01A950B94FDB
:102DA000A30FB11D2C930196F3CF80911707680FE5
:102DB0006093170780E0089581E0089582E0089508
:102DC0008FEF9FEF08958FEF9FEF08958091F006AA
:102DD00090E09195819591090895CF93DF93CB0170
:102DE000EA01642F0E94B816CE01DF91CF910895B9
:102DF000CF93DF931F92CDB7DEB7698361E0CE0139
:102E000001960E94B81681E090E00F90DF91CF917B
:102E10000895CF93DF931F92CDB7DEB7FC011982DF
:102E20006370668B8D5B9F4FAF014C5B5F4F623071
:102E300049F0633091F0613019F020EC298302C031
:102E400020EA0CC0DC018C9190E092AF81AFDA01F6
:102E50008C9190E094AF83AF0CC020E62983DC0115
:102E60008C9190E094AF83AFDA018C9190E092AFB7
:102E700081AFBE016F5F7F4FCF010E94D3100F90D3
:102E8000DF91CF910895CF93DF931F92CDB7DEB737
:102E9000FC0119826370668BDC01AA5BBF4F8C91C9
:102EA000982F9B7FAF014C5B5F4F913029F46230CC
:102EB00008F493E0DA019C939F012D5B3F4F623051
:102EC000D9F0633009F442C0613071F0823011F002
:102ED000843029F490EC9983813019F418C098EC6F
:102EE00010C08430C9F010C0823011F0843011F469
:102EF00090EA31C098EA38C08230A9F0843061F09D
:102F000098E09983813019F0863069F405C080E833
:102F100090E0938782870DC080EA90E09387828754
:102F200080E590E006C080EA90E09387828780E8A1
:102F300090E091878087D9018C9190E092AF81AF2A
:102F4000DA018C9190E094AF83AF2FC0823011F002
:102F5000843049F490E69983813061F480E890E010
:102F60009187808716C098E699838130B9F38630BF
:102F700051F402C08430D9F780EA90E091878087CD
:102F800080E590E006C080EA90E09187808780E845
:102F900090E093878287D9018C9190E094AF83AFC2
:102FA000DA018C9190E092AF81AFBE016F5F7F4FED
:102FB000CF010E94D3100F90DF91CF910895CF924F
:102FC000DF92EF92FF920F931F93CF93DF93EC0169
:102FD0006A017B01452B462B472B39F4C12C48E471
:102FE000D42E48EEE42EFF24F394FE01FF96C08217
:102FF000D182E282F38281E28DAF80E28EAF36969B
:1030000010818FA987FD07C061E00E94311E61E039
:103010008FA90E94021E61E088AD0E94311E61E00E
:1030200088AD0E94021E8DA9811159C040E052E175
:103030006AE770E090E0C416D506E606F70640F4AD
:1030400076956795579547959F5F9630A1F797E0DE
:1030500081E08927912F9C709065282F2695922BCF
:1030600099A381708AA3812F90E0A0E0B0E08BA3A8
:103070009CA3ADA3BEA31FB7F894809161078111F3
:1030800027C0E2E7F7E08491E4E5F7E09491E82FC8
:10309000F0E0EE0FFF1FE458F84FA591B491EC91CA
:1030A000E92321F461E08AE00E94021E61E08AE0E7
:1030B0000E94311E8CB580618CBD8CB580648CBD46
:1030C00061E08DE00E94311E61E08BE00E94311EC4
:1030D000809161078F5F809361071FBF4BC0813074
:1030E000B9F461E08AA50E94311E60E08AA50E94C1
:1030F000021E61E08CA50E94311E60E08CA50E943A
:10310000021E8BA587FD36C060E00E94311E32C0D2
:1031100008E617E0F12CF8018491E82FF0E0EE0FBB
:10312000FF1FE25AF84F859194912F8D38A12817EF
:10313000390741F461E08F2D0E94311E60E08F2D30
:103140000E94021EF3940F5F1F4FF4E1FF12E3CFC2
:1031500061E08EA50E94311E61E08EA50E94021ED4
:103160008FA587FD07C061E00E94311E61E08FA539
:103170000E94021E8EA987FD29C061E00E94311EB7
:1031800061E08EA90E94021E64E670E080E090E09B
:103190000E946D1E60E08EA90E94021E64E670E02F
:1031A00080E090E00E946D1E61E08EA90E94021EE8
:1031B00068EC70E080E090E0DF91CF911F910F917B
:1031C000FF90EF90DF90CF900C946D1EDF91CF9128
:1031D0001F910F91FF90EF90DF90CF9008951F9374
:1031E000CF93DF9385ED8093BC008091F30690919F
:1031F000F406A091F506B091F6060796A11DB11D43
:1032000023E0B695A795979587952A95D1F72091B4
:10321000BC0024FF53C04091F3065091F406609126
:10322000F5067091F606452B462B472B81F3009748
:10323000A105B10541F02AE22A95F1F700C00197F6
:10324000A109B109E4CF8091F206C1E0C093F10673
:103250008823B1F1D091B8001091BA008091BC00E0
:103260008A7B8093BC0060E082E10E94021E60E0E5
:1032700083E10E94021E10923B07C0933D0710920B
:103280003C0761E082E10E94021E61E083E10E944E
:10329000021E8091B9008E7F8093B9008091B900A1
:1032A0008D7F8093B90088E48093B80085E4809393
:1032B000BC001093BA00D093B80002C010923B0734
:1032C000DF91CF911F9108953FB7F8948091A307A4
:1032D0009091A407A091A507B091A60726B5A89B39
:1032E00005C02F3F19F00196A11DB11D3FBFBA2F98
:1032F000A92F982F8827820F911DA11DB11DBC01F8
:10330000CD0142E0660F771F881F991F4A95D1F7BC
:1033100008951F920F920FB60F9211242F933F938F
:103320008F939F93AF93BF938091A7079091A80726
:10333000A091A907B091AA073091A20723E0230F1B
:103340002D3720F40196A11DB11D05C026E8230FDD
:103350000296A11DB11D2093A2078093A707909309
:10336000A807A093A907B093AA078091A3079091FB
:10337000A407A091A507B091A6070196A11DB11DB4
:103380008093A3079093A407A093A507B093A607E3
:10339000BF91AF919F918F913F912F910F900FBE51
:1033A0000F901F9018951F920F920FB60F92112435
:1033B0002F933F934F935F936F937F938F939F933D
:1033C000AF93BF93EF93FF93E091CA05F091CB05C4
:1033D000309709F451C0968DA685B785858591FFF4
:1033E00004C09C91892329F447C09C91892309F04A
:1033F00043C0A389B4899C918589809589238C9346
:10340000868997890197F1F7608D718DA685B785BB
:10341000558538E020E0CB010197F1F7822F90E04D
:1034200095958795282F4C91452309F020683150B8
:1034300091F7868D81FD20958091C90590E00196D8
:103440008F7399273091C805381749F0A091C905A5
:10345000B0E0AE59B84F2C938093C90503C0868D58
:103460008160868F828D938D0197F1F7A389B4894E
:103470009C918589892B8C93FF91EF91BF91AF919E
:103480009F918F917F916F915F914F913F912F917C
:103490000F900FBE0F901F9018951F920F920FB6AE
:1034A0000F9211242F933F934F935F936F937F93CA
:1034B0008F939F93AF93BF93EF93FF938091B90046
:1034C000887F803609F49CC068F5883209F45BC0B7
:1034D00090F4803109F454C038F4882309F4F2C020
:1034E000883009F44DC0F2C0883109F44CC08032F4
:1034F00009F45DC0EBC0803409F468C048F480333F
:1035000009F455C0883309F0E1C080933A07D4C06C
:10351000803509F44FC0883509F45DC0883409F05E
:10352000D5C0D2C0883909F4C3C0A8F4883709F4DB
:1035300067C038F4883609F463C0803709F460C086
:10354000C5C0883809F4B4C0803909F45FC0803838
:1035500009F0BCC05BC0803B09F484C038F4803AF9
:1035600009F466C0883A09F47DC0B0C0803C09F413
:10357000A3C0883C09F4A0C0883B09F486C0A6C05B
:103580008091600710C090915F0780915E07981747
:1035900070F5E0915F0781E08E0F80935F07F0E0A8
:1035A000E25CF84F80818093BB0085EC82C0809301
:1035B0003A078AC0E0915F0781E08E0F80935F0732
:1035C0008091BB00F0E0E25CF84F808390915F0750
:1035D00080915E076AC0E0915F0781E08E0F809363
:1035E0005F078091BB00F0E0E25CF84F8083809140
:1035F0003D07811169C081E080933C0784EA5DC08A
:1036000083E080933B0710923907CFCF8091390731
:10361000803208F04DC0E091390781E08E0F809331
:1036200039078091BB00F0E0E75EF84F8083BDCFA3
:1036300085EC8093BC0010923B0780913907803263
:1036400030F4E0913907F0E0E75EF84F10826091C6
:10365000390770E089E197E0E0E0F0E00995109229
:10366000390734C084E080933B071092180710920A
:103670001707E0E0F0E0099580911707811105C078
:1036800081E0809317071092F706E091180781E018
:103690008E0F80931807F0E0E950F94F80818093F6
:1036A000BB009091180780911707981708F47DCFF9
:1036B00085E88093BC000AC085EC8093BC00109222
:1036C0003B0704C010923A070E94EF18FF91EF9158
:1036D000BF91AF919F918F917F916F915F914F912A
:1036E0003F912F910F900FBE0F901F901895FC01E6
:1036F000A5A1B6A19C9182A589238C93A5A1B6A171
:103700009C9181A5892B8C930895DC019396ED9172
:10371000FC919497908198968C9189238083089549
:10372000DC019396ED91FC919497908197968C9102
:10373000892B80830895DC019196ED91FC919297FD
:10374000908196968C91892380830895DC019196CF
:10375000ED91FC919297908195968C91892B808325
:103760000895FF920F931F93CF93DF93EC018B018A
:103770008DA9811109C01EBD0DB407FEFDCF0EBD80
:103780000DB407FEFDCF29C08130B1F490E1F92ED0
:10379000CE0117FF03C00E94A61B02C00E949B1B04
:1037A000CE010E94901BCE010E94851B000F111FAD
:1037B000FA94F110EDCF11C0EF8DF8A11083CE0176
:1037C0000E94771BEF8DF8A10083CE01DF91CF918E
:1037D0001F910F91FF900C94771BDF91CF911F9158
:1037E0000F91FF9008950F931F93CF93DF93EC01F8
:1037F000162F8DA9811105C06EBD0DB407FEFDCF3A
:103800001FC0813099F408E0CE0117FF03C00E9469
:10381000A61B02C00E949B1BCE010E94901B110F91
:10382000CE010E94851B015079F70AC0EF8DF8A1E7
:103830006083CE01DF91CF911F910F910C94771B84
:10384000DF91CF911F910F910895CF93DF93EC01FA
:10385000ED8DFE8D90818CA989238083CE010E94FD
:10386000F31BED8DFE8D90818BA9892B8083DF91D9
:10387000CF9108958F929F92AF92BF92CF92DF9295
:10388000EF92FF920F931F93CF93DF93EC0189ADDB
:103890009AAD4B01880E991E8BAD9CAD480F591FF8
:1038A000C9010197880D991DA0E0B0E0A12CB12CB1
:1038B000540199248824882A992AAA2ABB2A0150CB
:1038C00011096801C40ED51E860120E030E06A01AE
:1038D000E12CF12C7601DD24CC24C02AD12AE22A65
:1038E000F32A6AE2CE010E94251CB501A401CE0193
:1038F0000E94A5156BE2CE010E94251CB701A6010E
:10390000CE010E94A5156CE2CE01DF91CF911F91EF
:103910000F91FF90EF90DF90CF90BF90AF909F906E
:103920008F900C94251C1F93CF93DF93EC01162FDF
:10393000E881F9810284F385E02D0995112311F0C6
:103940006DAD01C06EADCE010E94251CE881F981EC
:103950000688F789E02DCE01DF91CF911F91099460
:10396000FC0185A9811104C091A182A19CBD8DBDDE
:103970000895FC01538D448D252F30E0842F90E075
:10398000821B930B541710F0CF960895019708955A
:10399000FC01918D828D981761F0828DDF01A80F57
:1039A000B11D5D968C91928D9F5F9F73928F90E079
:1039B00008958FEF9FEF0895FC01918D828D9817E8
:1039C00031F0828DE80FF11D858D90E008958FEF25
:1039D0009FEF0895FC01918D228D892F90E0805CEE
:1039E0009F4F821B91098F73992708958EEF95E061
:1039F0000E94EA1C21E0892B09F420E0822F08951F
:103A000080E090E0892B29F00E94F61C81110C9433
:103A100000000895CF92DF92EF92FF920F931F93D1
:103A2000CF93DF936C017A018B01C0E0D0E0CE151B
:103A3000DF0581F0D8016D918D01D601ED91FC91EA
:103A40000190F081E02DC6010995892B11F0219696
:103A5000EECF7E01C701DF91CF911F910F91FF90B3
:103A6000EF90DF90CF900895833081F028F481307B
:103A700099F08230A1F008958730A9F08830B9F02C
:103A80008430D1F4809180008F7D03C080918000CC
:103A90008F7780938000089584B58F7702C084B5B6
:103AA0008F7D84BD08958091B0008F7703C0809191
:103AB000B0008F7D8093B00008950E949725FC018F
:103AC000848DDF01A80FB11DA35ABF4F2C91848DA7
:103AD00090E001968F739927848FA689B7892C93DC
:103AE000A089B1898C91837080648C93938D848D2F
:103AF000981306C00288F389E02D80818F7D808332
:103B000008951F920F920FB60F9211242F933F9397
:103B10004F935F936F937F938F939F93AF93BF93D5
:103B2000EF93FF938EEF95E00E945F1DFF91EF9161
:103B3000BF91AF919F918F917F916F915F914F91C5
:103B40003F912F910F900FBE0F901F9018951F92CD
:103B50000F920FB60F9211242F938F939F93EF9391
:103B6000FF93E0910E06F0910F068081E09114061C
:103B7000F091150682FD12C09081809117068F5F2B
:103B80008F7320911806821751F0E0911706F0E02C
:103B9000E250FA4F958F8093170601C08081FF9104
:103BA000EF919F918F912F910F900FBE0F901F90CB
:103BB0001895CF93DF93282F30E0F901EA57F84F9B
:103BC0008491F901E65BF84FD491F901E859F84F77
:103BD000C491CC2391F081110E94341DEC2FF0E0B0
:103BE000EE0FFF1FE65DF84FA591B491EC91ED2328
:103BF00081E090E021F480E002C080E090E0DF917D
:103C0000CF9108951F93CF93DF93282F30E0F901D0
:103C1000EA57F84F8491F901E65BF84FD491F90126
:103C2000E859F84FC491CC23C1F0162F81110E949E
:103C3000341DEC2FF0E0EE0FFF1FE25AF84FA59174
:103C4000B4919FB7F894111104C08C91D095D823EA
:103C500002C0EC91DE2BDC939FBFDF91CF911F91CF
:103C60000895CF93DF9390E0FC01E65BF84F249139
:103C7000FC01E859F84F8491882361F190E0880FA6
:103C8000991FFC01E458F84FC591D491FC01E25A08
:103C9000F84FA591B491611109C09FB7F89488813C
:103CA000209582238883EC912E230BC0623061F42F
:103CB0009FB7F8948881322F309583238883EC91C5
:103CC0002E2B2C939FBF06C08FB7F894E8812E2B24
:103CD00028838FBFDF91CF9108958F929F92AF92EB
:103CE000BF92CF92DF92EF92FF926B017C010E9414
:103CF00064194B015C01C114D104E104F104F1F039
:103D00000E946419DC01CB0188199909AA09BB0931
:103D1000883E9340A105B10570F321E0C21AD10895
:103D2000E108F10888EE880E83E0981EA11CB11C02
:103D3000C114D104E104F10419F7DDCFFF90EF9035
:103D4000DF90CF90BF90AF909F908F900895EEEF4F
:103D5000F5E01382128288EE93E0A0E0B0E0848365
:103D60009583A683B78325EC33E03183208325EC4C
:103D700030E03587248724EC30E03787268720EC35
:103D800030E0318B208B21EC30E0338B228B22EC26
:103D900030E0358B248B26EC30E0378B268B118E70
:103DA000128E138E148EE2EEF6E01382128284835A
:103DB0009583A683B78387ED93E091838083ABE9F6
:103DC000B6E013961C921E92129720E830E01596EA
:103DD0003C932E93149780EA90E017969C938E93D1
:103DE000169719963C932E9318971B969C938E9337
:103DF0001A9756961C9256971D961C921E921C97C7
:103E00001F961C921E921E9781E055968C93559793
:103E100054968C9354972FEF3FEF53963C932E93E9
:103E2000529751963C932E93509757968C93579751
:103E300058961C9258975A961C921E925997D5964E
:103E40001C92D59782E0D6968C93D6978AE0D79627
:103E50008C93D79783E0D8968C93D897DA961C9258
:103E60001E92D997DC961C921E92DB97DD961C92CF
:103E7000DD97DE961C92DE971092DA061092DB0632
:103E80001092DC061092DD068EEE96E090969C93E2
:103E90008E935F97EBE6F7E0E491F0E0EE0FFF1F03
:103EA000E25AF84F859194915E969C938E935D971C
:103EB000EDE4F7E08491D3968C93D397E2E7F7E0B3
:103EC000E491F0E0EE0FFF1FE25AF84F2591349194
:103ED0005C963C932E935B97E4E5F7E0E491D196F2
:103EE000EC93D197E095D296EC93D297E82FE0959A
:103EF000D496EC93D4971092DE061092DF061092BF
:103F0000E00689E494E08D939C930895CF93DF932A
:103F1000CDB7DEB765970FB6F894DEBF0FBECDBF45
:103F2000789484B5826084BD84B5816084BD85B594
:103F3000826085BD85B5816085BD80916E008160A0
:103F400080936E0010928100809181008260809346
:103F50008100809181008160809381008091800048
:103F60008160809380008091B10084608093B10073
:103F70008091B00081608093B00080917A0084606D
:103F800080937A0080917A00826080937A00809199
:103F90007A00816080937A0080917A0080688093B3
:103FA0007A001092C10040E050E0BA018BE996E03F
:103FB0000E94DF1782ED97E00E941C1185EC97E0CC
:103FC0000E941C118AE997E00E941C1180EC8983F1
:103FD000BE016F5F7F4F8BE996E00E94D31012E025
:103FE0001093E10660E08BE996E00E94431761E0E0
:103FF0008BE996E00E9443178FB7F8944091A7078A
:104000005091A8076091A9077091AA078FBF60E03F
:1040100070E08BE996E00E9414058FB7F894409108
:10402000A7075091A8076091A9077091AA078FBFB1
:1040300062E084E00E94311E61E084E00E94021E82
:104040000E941E0B1093AF061093B0064AE050E09A
:104050005F874E875AE95E8369E96F8389E18887C4
:104060009FE3998720E030E0212C312CCE80DF8047
:1040700008851985710119011D821C8284E00E9446
:10408000D91D892B51F56FEF7FEF8BE996E00E94E8
:10409000140568EC70E080E090E00E946D1E60E026
:1040A00070E08BE996E00E94140560E971E080E021
:1040B00090E00E946D1E8091AB079091AC070E942A
:1040C0003A108091AD07882309F437C165E774E0A1
:1040D0008EEF95E00E94900B30C14C815D81406E67
:1040E0005F6F5B874A878C819D810E94710B20E006
:1040F00030E040E85FE30E94E02220E030E040E072
:104100005FE30E94CC2320E030E040EC5FE30E94BC
:10411000E0222AE939E949E95EE30E94CC236E8373
:104120007F83888799871092AE061092AD06109211
:10413000AC061092AB0620E030E040EA52E4B60153
:10414000C8010E94CC23688B798B8A8B9B8B20E0E3
:1041500030E04CE852E4B601C8010E94CC234B0188
:104160005C0187011395C70108979D8B8C8B1B827F
:104170001A82C8010E94710B2B013C01C801805CAE
:104180009F4F0E94710B6B017C01A3019201688912
:1041900079898A899B890E94CC2320E030E04CE811
:1041A00052E40E94E0220E944C237093A806609380
:1041B000A706A7019601C501B4010E94CC2320E007
:1041C00030E040E752E40E94E0220E944C237093CA
:1041D000AA066093A906EA81FB81E457FB4F808120
:1041E000882341F00E9435104A815B814F5F5F4F09
:1041F0005B834A830B5011098C899D898017910735
:1042000009F0B7CF4A855B855093AE064093AD0663
:104210005093AC064093AB0620E030E040EA52E415
:104220006E817F81888599850E94CC236A877B87F0
:104230008C879D8720E030E04CE852E46E817F81DE
:10424000888599850E94CC236B017C01810113959F
:10425000C1010897998B888B1B821A82C8010E9422
:10426000710B2B013C01C801805C9F4F0E94710BB8
:104270004B015C01A30192016A857B858C859D853C
:104280000E94CC2320E030E04CE852E40E94E0227F
:104290000E944C237093A8066093A706A501940181
:1042A000C701B6010E94CC2320E030E040E752E491
:1042B0000E94E0220E944C237093AA066093A906F4
:1042C000EA81FB81E457FB4F8081882341F00E9403
:1042D00035104A815B814F5F5F4F5B834A830B5090
:1042E0001109888999898017910709F0B7CF62E38E
:1042F00070E080E090E00E946D1EC101049760E0D4
:1043000071E00E9439249C014C815D814F5F5F4FB9
:104310005D834C8371014115514031F0CE80DF80C7
:10432000088519851C01AACE8E859F8501979F87D8
:104330008E87892B09F4A7CE99CE01E010E0E0909A
:10434000B007F090B107F092AF07E092AE0784E0BB
:104350000E94D91D892BF1F51093B1070093B00786
:10436000EA94EF28D9F184E00E94D91D60E971E058
:1043700080E090E00E946D1E84E00E94D91D892B90
:1043800031F561E08BE996E00E94931C60E971E0F1
:1043900080E090E00E946D1E60E08BE996E00E9454
:1043A000931C60E971E080E090E00E946D1EE09156
:1043B000AB07F091AC07EE0FFF1FEE0FFF1FE755A5
:1043C000FC4F0280F381E02D309741F009950E9467
:1043D000000B04C01092B1071092B0070E94001D9C
:1043E000AECF8F929F92AF92BF92CF92DF92EF9219
:1043F000FF92CF93DF93EC01688179818A819B8161
:10440000611571058105910521F464E279ED8BE573
:1044100097E02DE133EF41E050E00E947C2249011A
:104420005A019B01AC01A7EAB1E40E949B226B01F7
:104430007C01ACEEB4EFA50194010E94A922DC013D
:10444000CB018C0D9D1DAE1DBF1DB7FF03C0019795
:10445000A109B04888839983AA83BB839F77DF91A2
:10446000CF91FF90EF90DF90CF90BF90AF909F9053
:104470008F9008950E94F121089580E091E00E94BC
:10448000F1210895A0E0B0E0809300019093010134
:10449000A0930201B09303010895FC018827992796
:1044A000E89421912032E9F3293010F02E30C8F33E
:1044B0002B3241F02D3239F4689404C00E947422EA
:1044C000820F911D219120532A30C0F31EF4909544
:1044D00081959F4F0895FC0105900020E9F7809594
:1044E00090958E0F9F1F08957AE0979F902D879F3C
:1044F000802D910D11240895052E97FB1EF4009434
:104500000E94932257FD07D00E94AE2207FC03D0E1
:104510004EF40C94932250954095309521953F4F41
:104520004F4F5F4F089590958095709561957F4F9F
:104530008F4F9F4F08950E94D022A59F900DB49F4A
:10454000900DA49F800D911D11240895B7FF0C9428
:104550009B220E949B22821B930B0895A1E21A2E9C
:10456000AA1BBB1BFD010DC0AA1FBB1FEE1FFF1F17
:10457000A217B307E407F50720F0A21BB30BE40B67
:10458000F50B661F771F881F991F1A9469F76095AE
:104590007095809590959B01AC01BD01CF01089568
:1045A000A29FB001B39FC001A39F700D811D112474
:1045B000911DB29F700D811D1124911D08955058B9
:1045C000BB27AA270E94F7220C9492230E948423DF
:1045D00038F00E948B2320F039F49F3F19F426F421
:1045E0000C9481230EF4E095E7FB0C947B23E92FD8
:1045F0000E94A32358F3BA1762077307840795072D
:1046000020F079F4A6F50C94C5230EF4E0950B2E5A
:10461000BA2FA02D0B01B90190010C01CA01A00114
:104620001124FF27591B99F0593F50F4503E68F16F
:104630001A16F040A22F232F342F4427585FF3CFB0
:10464000469537952795A795F0405395C9F77EF481
:104650001F16BA0B620B730B840BBAF09150A1F0CA
:10466000FF0FBB1F661F771F881FC2F70EC0BA0F50
:10467000621F731F841F48F4879577956795B795D8
:10468000F7959E3F08F0B0CF9395880F08F09927D3
:10469000EE0F9795879508950E94AB2388F09F575A
:1046A00098F0B92F9927B751B0F0E1F0660F771F56
:1046B000881F991F1AF0BA95C9F714C0B13091F04C
:1046C0000E94C523B1E008950C94C523672F782F6D
:1046D0008827B85F39F0B93FCCF386957795679511
:1046E000B395D9F73EF490958095709561957F4F7D
:1046F0008F4F9F4F089597F99F6780E870E060E0C3
:1047000008959FEF80EC089500240A94161617066A
:1047100018060906089500240A94121613061406B2
:1047200005060895092E0394000C11F4882352F015
:10473000BB0F40F4BF2B11F460FF04C06F5F7F4FCD
:104740008F4F9F4F089557FD9058440F551F59F0B4
:104750005F3F71F04795880F97FB991F61F09F3F6E
:1047600079F087950895121613061406551FF2CF97
:104770004695F1DF08C0161617061806991FF1CFE7
:1047800086957105610508940895E894BB2766270E
:104790007727CB0197F908950E94DF230C94922389
:1047A0000E94842338F00E948B2320F0952311F07F
:1047B0000C947B230C94812311240C94C6230E9417
:1047C000A32370F3959FC1F3950F50E0551F629F8F
:1047D000F001729FBB27F00DB11D639FAA27F00D5A
:1047E000B11DAA1F649F6627B00DA11D661F829F81
:1047F0002227B00DA11D621F739FB00DA11D621F66
:10480000839FA00D611D221F749F3327A00D611D82
:10481000231F849F600D211D822F762F6A2F112464
:104820009F5750409AF0F1F088234AF0EE0FFF1F97
:10483000BB1F661F771F881F91505040A9F79E3FEE
:10484000510580F00C947B230C94C6235F3FE4F366
:10485000983ED4F3869577956795B795F795E79544
:104860009F5FC1F7FE2B880F911D9695879597F94D
:10487000089597FB072E16F4009407D077FD09D012
:104880000E945C2407FC05D03EF4909581959F4FD3
:104890000895709561957F4F08950E94D02233232B
:1048A00012F48A1B9B0B0C9457240E94D022B7FF52
:1048B0000895821B930B0895AA1BBB1B51E107C0EF
:1048C000AA1FBB1FA617B70710F0A61BB70B881FA0
:1048D000991F5A95A9F780959095BC01CD0108952F
:1048E000EE0FFF1F0590F491E02D09940F931F9395
:1048F000CF93DF938230910510F482E090E0E09155
:10490000B407F091B50720E030E0A0E0B0E03097C8
:1049100019F1408151810281138148175907C8F06C
:104920008417950769F4109731F012960C9312973B
:1049300013961C9327C00093B4071093B50722C0A9
:104940002115310519F04217530718F49A01BD01DA
:10495000EF01DF01F801DBCF21153105F9F0281B4C
:10496000390B2430310580F48A819B8161157105F2
:1049700021F0FB019383828304C09093B507809359
:10498000B407FE01329644C0FE01E20FF31F81938B
:10499000919322503109398328833AC02091B2077C
:1049A0003091B307232B41F4209106013091070188
:1049B0003093B3072093B207209104013091050191
:1049C0002115310541F42DB73EB7409108015091B2
:1049D0000901241B350BE091B207F091B307E217F0
:1049E000F307A0F42E1B3F0B2817390778F0AC0112
:1049F0004E5F5F4F2417350748F04E0F5F1F5093EF
:104A0000B3074093B2078193919302C0E0E0F0E0D6
:104A1000CF01DF91CF911F910F910895CF93DF9335
:104A2000009709F481C0FC01329713821282A09191
:104A3000B407B091B507109781F420813181820FBE
:104A4000931F2091B2073091B3072817390751F50A
:104A5000F093B307E093B20767C0ED0120E030E0C8
:104A6000CE17DF0740F44A815B819E014115510555
:104A7000F1F0EA01F5CFD383C28340815181840FE5
:104A8000951FC817D90759F488819981840F951FFC
:104A90000296918380838A819B81938382832115EF
:104AA000310529F4F093B507E093B4073DC0E9015F
:104AB000FB83EA8349915991C40FD51FEC17FD0779
:104AC00061F480819181840F951F0296E901998399
:104AD0008883828193819B838A83E0E0F0E0129651
:104AE0008D919C911397009719F0FD01DC01F7CF90
:104AF0008D919C9111979D012E5F3F4F820F931FC7
:104B00002091B2073091B3072817390769F430971D
:104B100029F41092B5071092B40702C013821282D2
:104B2000B093B307A093B207DF91CF91089581E0CE
:104B300090E0F8940C94012985FD0C94172880626C
:104B400091110C94172881568A51D8F70895911124
:104B50000C941728803219F089508550C8F70895B1
:104B6000FB01DC010D900020E9F7119701900D92F7
:104B70000020E1F70895FC018191861721F0882338
:104B8000D9F7992708953197CF010895FB01DC01EA
:104B90008D91019080190110D9F3990B0895FB01B3
:104BA000DC0101900D920020E1F70895FB01DC018A
:104BB0004150504030F08D910190801919F400203F
:104BC000B9F7881B990B0895AEE0B0E0EAEEF5E284
:104BD0000C94D8280D891E898F89988D26E02C8306
:104BE0001A83098397FF02C080E090E801979E83B3
:104BF0008D83AE01455E5F4F698D7A8DCE01019642
:104C00000E9436264D815E8157FD0AC02F8138856E
:104C1000421753070CF49A01F801E20FF31F1082B8
:104C20002E96E4E00C94F428AEE0B0E0EAE1F6E27F
:104C30000C94D8280D891E8986E08C831A830983F9
:104C40008FEF9FE79E838D83AE01475E5F4F6F8935
:104C5000788DCE0101960E943626EF81F885E00F0F
:104C6000F11F10822E96E4E00C94F428ABE0B0E043
:104C7000ECE3F6E20C94CA286C017B018A01FC018A
:104C800017821682838181FFCCC1CE0101963C013F
:104C9000F6019381F70193FD859193FF81917F0147
:104CA000882309F4BAC1853239F493FD859193FFC5
:104CB00081917F01853229F4B60190E00E9430286D
:104CC000E7CF912C212C312CFFE1F315D8F08B325A
:104CD00079F038F4803279F08332A1F4232D206109
:104CE0001DC08D3261F0803369F4232D216016C020
:104CF000832D8260382EE32DE4603E2E2AC0F32DF2
:104D0000F8601DC037FC2DC020ED280F2A3040F080
:104D10008E32B9F436FC81C1232D2064322E19C0A5
:104D200036FE06C08AE0989E200D1124922E11C0F6
:104D3000EAE02E9E200D1124222EF32DF0623F2E4C
:104D400008C08C3621F4832D8068382E02C0883646
:104D500041F4F70193FD859193FF81917F018111CA
:104D6000B3CF982F9F7D9554933028F40C5F1F4F3D
:104D70009FE399830DC0833631F0833771F083351B
:104D800009F059C021C0F801808189830E5F1F4F4F
:104D900088248394912C530113C02801F2E04F0E14
:104DA000511CF801A080B18036FE03C0692D70E06F
:104DB00002C06FEF7FEFC5010E9425284C018201E0
:104DC000F32DFF773F2E16C0280122E0420E511C22
:104DD000F801A080B18036FE03C0692D70E002C0EA
:104DE0006FEF7FEFC5010E941A284C01F32DF06888
:104DF0003F2E820133FC1BC0822D90E0881699065D
:104E0000B0F4B60180E290E00E9430282A94F4CFFA
:104E1000F50137FC859137FE81915F01B60190E085
:104E20000E94302821102A9421E0821A91088114CE
:104E3000910471F7E8C0843611F0893641F5F80124
:104E400037FE07C060817181828193810C5F1F4FA3
:104E500008C060817181072E000C880B990B0E5FD2
:104E60001F4FF32DFF763F2E97FF09C09095809539
:104E7000709561957F4F8F4F9F4FF0683F2E2AE0CE
:104E800030E0A3010E946C28882E861845C0853723
:104E900031F4232D2F7EB22E2AE030E025C0932D51
:104EA000997FB92E8F36C1F018F4883579F0B5C0E6
:104EB000803719F0883721F0B0C0E92FE061BE2EAD
:104EC000B4FE0DC0FB2DF460BF2E09C034FE0AC035
:104ED000292F2660B22E06C028E030E005C020E170
:104EE00030E002C020E132E0F801B7FE07C0608187
:104EF0007181828193810C5F1F4F06C06081718137
:104F000080E090E00E5F1F4FA3010E946C28882E66
:104F10008618FB2DFF773F2E36FE0DC0232D2E7FEA
:104F2000A22E891458F434FE0BC032FC09C0832D24
:104F30008E7EA82E05C0B82CA32C03C0B82C01C0AF
:104F4000B92CA4FE0FC0FE01E80DF11D8081803355
:104F500021F49A2D997EA92E09C0A2FE06C0B39411
:104F6000B39404C08A2D867809F0B394A3FC11C0D1
:104F7000A0FE06C0B21488F4280C922C9B180EC018
:104F8000B21460F4B60180E290E00E943028B3943D
:104F9000F7CFB21418F42B1802C0982C212CA4FEC1
:104FA00010C0B60180E390E00E943028A2FE17C036
:104FB000A1FC03C088E790E002C088E590E0B6015C
:104FC0000CC08A2D867859F0A1FE02C08BE201C088
:104FD00080E2A7FC8DE2B60190E00E94302889149F
:104FE00038F4B60180E390E00E9430289A94F7CF1D
:104FF0008A94F301E80DF11D8081B60190E00E94D2
:1050000030288110F5CF222009F442CEB60180E28B
:1050100090E00E9430282A94F6CFF601868197818D
:1050200002C08FEF9FEF2B96E2E10C94E6289927C0
:1050300088270895FC010590615070400110D8F751
:10504000809590958E0F9F1F0895FC0161507040D0
:1050500001900110D8F7809590958E0F9F1F0895AD
:105060000F931F93CF93DF93FB01238121FD03C097
:105070008FEF9FEF2CC022FF16C0468157812481FD
:1050800035814217530744F4A081B1819D012F5F00
:105090003F4F318320838C93268137812F5F3F4F91
:1050A0003783268314C08B01EC01FB010084F1855A
:1050B000E02D0995892BE1F6D80116968D919C91EA
:1050C0001797019617969C938E931697CE01DF91B2
:1050D000CF911F910F910895FA01AA27283051F11D
:1050E000203181F1E8946F936E7F6E5F7F4F8F4F19
:1050F0009F4FAF4FB1E03ED0B4E03CD0670F781F78
:10510000891F9A1FA11D680F791F8A1F911DA11D5C
:105110006A0F711D811D911DA11D20D009F4689495
:105120003F912AE0269F11243019305D3193DEF63D
:10513000CF010895462F4770405D4193B3E00FD0F3
:10514000C9F7F6CF462F4F70405D4A3318F0495DDE
:1051500031FD4052419302D0A9F7EACFB4E0A695C1
:105160009795879577956795BA95C9F700976105E3
:10517000710508959B01AC010A2E06945795479539
:1051800037952795BA95C9F7620F731F841F951F2E
:10519000A01D08952F923F924F925F926F927F923F
:1051A0008F929F92AF92BF92CF92DF92EF92FF9237
:1051B0000F931F93CF93DF93CDB7DEB7CA1BDB0BE3
:1051C0000FB6F894DEBF0FBECDBF09942A88398888
:1051D00048885F846E847D848C849B84AA84B9848F
:1051E000C884DF80EE80FD800C811B81AA81B9819B
:1051F000CE0FD11D0FB6F894DEBF0FBECDBFED01AF
:065200000895F894FFCFB1
:10520600010000000000B60720000000803F46ECC9
:105216007F3F29B17F3F984E7F3FC6C47E3FA11393
:105226007E3F5C3B7D3F293C7C3F09167B3F3FC967
:10523600793FEB55783F73BC763FE7FC743F9C178C
:10524600733FE50C713F05DD6E3F61886C3F3D0F96
:105256006A3F1D72673F57B1643F4FCD613F7AC6C3
:105266005E3F4E9D5B3F6152583F08E6543FFB58F8
:10527600513F9FAB4D3F9CDE493F78F2453FDAE711
:10528600413F6ABF3D3FAF79393F6117353F399995
:10529600303FCEFF2B3FF94B273F417E223F92976F
:1052A6001D3FA298183F2C82133FF8540E3FE01181
:1052B600093F9DB9033F359AFC3E209AF13EF374AF
:1052C600E63E412CDB3EDFC1CF3E6137C43EBD8E9C
:1052D600B83EA7C9AC3ED5E9A03E5EF1943ED6E104
:1052E600883EAB7A793E200B613EFB78483EE7C7A5
:1052F6002F3E8FFB163E4D30FC3DAF42CA3D9C35DE
:10530600983DEE224C3D6076CF3CA8AA503AB56B4C
:10531600C2BCA59E45BD0AF594BDB003C7BDEDF35D
:10532600F8BDAF5E15BE562C2EBE83DF46BEC173DA
:105336005FBEA8E577BEA41888BE9E2994BEA723A3
:10534600A0BE0C05ACBEF7CBB7BE9276C3BE0803B3
:10535600CFBEA46FDABE91BAE5BE19E2F0BE8AE40A
:10536600FBBE186003BFAAB908BF33FE0DBFD82C19
:1053760013BFD04418BF52451DBF952D22BFDFFC79
:1053860026BF79B22BBF984D30BF96CD34BFA93119
:1053960039BF4A793DBFB1A341BF47B045BF629E01
:1053A60049BF6E6D4DBFD21C51BF08AC54BF7A1AAF
:1053B60058BFA1675BBFF7925EBF069C61BF5A826A
:1053C60064BF6B4567BFE7E469BF57606CBF67B7EB
:1053D6006EBFA3E970BFC7F672BF7FDE74BF88A039
:1053E60076BF7D3C78BF4FB279BF97017BBF352A28
:1053F6007CBF062C7DBFC8067EBF6BBA7EBFDC466F
:105406007FBFEBAB7FBFA7E97FBF16090E5E550BCB
:10541600170E130A0B635341164C0E12404E611EB3
:105426000F18221A0016090E5E5517090D24665D1F
:1054360008711E0D1C141E220016090E5E550E1153
:10544600210F232676485C43171314406062411AE5
:1054560014240D10654F0016090E5E550A1D1F0C0B
:10546600380E5B5807180E3D0E0F764D110C0725AA
:10547600161B5C4F0016090E5E55080D1E221E1DDA
:105486004B710F0D320F380B604807431C24380E42
:1054960076481315181B000000000031160A1DCAB5
:1054A6000630168116971618162102450F1A02B0F5
:1054B6000E1002510E0302F20DF801520D0000000B
:1054C6000000000000810F0A1DB91CCE0FEA1CC89F
:1054D6001CDC1C00000000F816ED16CA063016E6A5
:1054E60016E316E01600000000C0090A1DCA06C928
:1054F600062D09AF097D09C2083D0880081706F583
:105506000A3304931CCD063F07B1071405A70448C8
:10551600045D1D5D1D00000000C0090A1DCA06C904
:10552600062D09AF097D09C2083D0880081706F552
:105536000A0917931CCD063F07B1071405A70448AF
:1055460004DF173A1C00000000C0090A1DCA06C97C
:10555600062D09AF097D09C2083D0880081706F522
:105566000A4317931CCD063F07B1071405A7044845
:1055760004DF173A1C666C61677B746F6F5F6D6141
:105586006E795F736563726574737D0043796265D6
:105596007220536B696C6C73204368616C6C656E2A
:1055A6006765000D0A434F52524543542120256931
:1055B6002F25690D0A0D0A000D0A474F543A202778
:1055C60000272077686963682069732057524F4E19
:1055D60047203A280D0A00256420256320256420EB
:1055E6003D3D203F00534F4C56453A202700270D9E
:1055F6000A00434F4E564552543A2000454E5445F4
:1056060052204C454E4754483A50415353574F52F7
:10561600443A2000594F552048415645204C4F47A3
:1056260047454420494E2053554343455353465519
:105636004C4C590D0A0D0A004D415443480D0A0DB4
:105646000A0057524F4E470D0A0D0A00506C65610D
:1056560073652068697420656E74657220746F20A6
:10566600626567696E2E2E2E00696E66303565633B
:025676007400BE
:00000001FF
